{"abi":[{"type":"constructor","inputs":[{"name":"_treasury","type":"address","internalType":"address"}],"stateMutability":"nonpayable"},{"type":"fallback","stateMutability":"payable"},{"type":"receive","stateMutability":"payable"},{"type":"function","name":"BALANCER_VAULT","inputs":[],"outputs":[{"name":"","type":"address","internalType":"address"}],"stateMutability":"view"},{"type":"function","name":"WETH","inputs":[],"outputs":[{"name":"","type":"address","internalType":"address"}],"stateMutability":"view"},{"type":"function","name":"authorizeCaller","inputs":[{"name":"caller","type":"address","internalType":"address"}],"outputs":[],"stateMutability":"nonpayable"},{"type":"function","name":"authorizedCallers","inputs":[{"name":"","type":"address","internalType":"address"}],"outputs":[{"name":"","type":"bool","internalType":"bool"}],"stateMutability":"view"},{"type":"function","name":"deauthorizeCaller","inputs":[{"name":"caller","type":"address","internalType":"address"}],"outputs":[],"stateMutability":"nonpayable"},{"type":"function","name":"execute","inputs":[{"name":"route","type":"bytes","internalType":"bytes"}],"outputs":[],"stateMutability":"nonpayable"},{"type":"function","name":"failedExecutions","inputs":[],"outputs":[{"name":"","type":"uint256","internalType":"uint256"}],"stateMutability":"view"},{"type":"function","name":"getStats","inputs":[],"outputs":[{"name":"","type":"uint256","internalType":"uint256"},{"name":"","type":"uint256","internalType":"uint256"},{"name":"","type":"uint256","internalType":"uint256"}],"stateMutability":"view"},{"type":"function","name":"kill","inputs":[],"outputs":[],"stateMutability":"nonpayable"},{"type":"function","name":"killed","inputs":[],"outputs":[{"name":"","type":"bool","internalType":"bool"}],"stateMutability":"view"},{"type":"function","name":"owner","inputs":[],"outputs":[{"name":"","type":"address","internalType":"address"}],"stateMutability":"view"},{"type":"function","name":"receiveFlashLoan","inputs":[{"name":"tokens","type":"address[]","internalType":"address[]"},{"name":"amounts","type":"uint256[]","internalType":"uint256[]"},{"name":"feeAmounts","type":"uint256[]","internalType":"uint256[]"},{"name":"userData","type":"bytes","internalType":"bytes"}],"outputs":[],"stateMutability":"nonpayable"},{"type":"function","name":"rescueERC20","inputs":[{"name":"token","type":"address","internalType":"address"},{"name":"amount","type":"uint256","internalType":"uint256"}],"outputs":[],"stateMutability":"nonpayable"},{"type":"function","name":"rescueETH","inputs":[],"outputs":[],"stateMutability":"nonpayable"},{"type":"function","name":"setTreasury","inputs":[{"name":"_treasury","type":"address","internalType":"address"}],"outputs":[],"stateMutability":"nonpayable"},{"type":"function","name":"totalExecutions","inputs":[],"outputs":[{"name":"","type":"uint256","internalType":"uint256"}],"stateMutability":"view"},{"type":"function","name":"totalProfit","inputs":[],"outputs":[{"name":"","type":"uint256","internalType":"uint256"}],"stateMutability":"view"},{"type":"function","name":"treasury","inputs":[],"outputs":[{"name":"","type":"address","internalType":"address"}],"stateMutability":"view"},{"type":"function","name":"uniswapV3SwapCallback","inputs":[{"name":"amount0Delta","type":"int256","internalType":"int256"},{"name":"amount1Delta","type":"int256","internalType":"int256"},{"name":"data","type":"bytes","internalType":"bytes"}],"outputs":[],"stateMutability":"nonpayable"},{"type":"function","name":"unkill","inputs":[],"outputs":[],"stateMutability":"nonpayable"},{"type":"event","name":"ArbExecuted","inputs":[{"name":"blockNumber","type":"uint256","indexed":true,"internalType":"uint256"},{"name":"inputAmount","type":"uint256","indexed":false,"internalType":"uint256"},{"name":"outputAmount","type":"uint256","indexed":false,"internalType":"uint256"},{"name":"netProfit","type":"uint256","indexed":false,"internalType":"uint256"},{"name":"gasUsed","type":"uint256","indexed":false,"internalType":"uint256"}],"anonymous":false},{"type":"event","name":"CallerAuthorized","inputs":[{"name":"caller","type":"address","indexed":false,"internalType":"address"}],"anonymous":false},{"type":"event","name":"CallerDeauthorized","inputs":[{"name":"caller","type":"address","indexed":false,"internalType":"address"}],"anonymous":false},{"type":"event","name":"KillSwitch","inputs":[{"name":"active","type":"bool","indexed":false,"internalType":"bool"}],"anonymous":false},{"type":"event","name":"TreasuryUpdated","inputs":[{"name":"newTreasury","type":"address","indexed":false,"internalType":"address"}],"anonymous":false}],"bytecode":{"object":"0x608060409080825234620001df578062001cb68038038091620000238285620001e4565b8339602092839181010312620001df57516001600160a01b03811690819003620001df57600080546001600160a01b03191633178155600180546001600160a81b031916909217909155825163095ea7b360e01b83820190815273ba12222222228d8ba445958a75a0704d566bf2c8602483015260001960448084019190915282526001600160401b0392916080810184811182821017620001cb578652518291829190827342000000000000000000000000000000000000065af1913d15620001c2573d908111620001ae5784519062000108601f8201601f1916860183620001e4565b81523d828583013e5b8262000162575b5050156200012f575051611a9790816200021f8239f35b606491519062461bcd60e51b82526004820152600e60248201526d105c1c1c9bdd994819985a5b195960921b6044820152fd5b805192508215919084831562000180575b5050509050388062000118565b919381809450010312620001aa57820151908115158203620001a757508038808462000173565b80fd5b5080fd5b634e487b7160e01b82526041600452602482fd5b50606062000111565b634e487b7160e01b84526041600452602484fd5b600080fd5b601f909101601f19168101906001600160401b038211908210176200020857604052565b634e487b7160e01b600052604160045260246000fdfe60806040526004361015610018575b361561001657005b005b60003560e01c806309c5eabe146101585780631f3a0e411461015357806320800a001461014e5780632c388d5d1461014957806341c0e1b514610144578063536fff6c1461013f57806361d027b31461013a578063642f7d5e146101355780636873c21d14610130578063860015191461012b5780638abe28a3146101265780638cd4426d146101215780638da5cb5b1461011c578063ad5c464814610117578063bc16384614610112578063c59d48471461010d578063ddc4143514610108578063f04f270714610103578063f0f44260146100fe5763fa461e330361000e57610767565b6106ea565b610660565b610611565b6105e2565b6105b3565b610590565b610567565b610527565b6104c7565b6104a9565b610430565b610412565b6103e9565b6103a7565b61033f565b6102c3565b610263565b61023d565b610190565b9181601f8401121561018b5782359167ffffffffffffffff831161018b576020838186019501011161018b57565b600080fd5b3461018b57602036600319011261018b5760043567ffffffffffffffff811161018b576101c190369060040161015d565b6000546001600160a01b03163314801561021a575b156101e45761001691610860565b60405162461bcd60e51b815260206004820152600e60248201526d139bdd08185d5d1a1bdc9a5e995960921b6044820152606490fd5b5033600052600360205260ff604060002054166101d6565b600091031261018b57565b3461018b57600036600319011261018b57602060ff60015460a01c166040519015158152f35b3461018b576000806003193601126102af578080808060018060a01b0381541661028e813314610828565b47908282156102a6575bf1156102a15780f35b610e54565b506108fc610298565b80fd5b6001600160a01b0381160361018b57565b3461018b57602036600319011261018b577f6acfd92212f0ec670af78f8ba2273e4a85ac17023475650c25be0440602bff2d6020600435610303816102b2565b6000546001600160a01b03919061031d9083163314610828565b1680600052600382526040600020600160ff19825416179055604051908152a1005b3461018b576000806003193601126102af5761036560018060a01b038254163314610828565b6001805460ff60a01b1916600160a01b1781556040519081527fa6a833a748bb4239edb6bf29967ce0844bdde1213bfe417b50e53be0f763413d90602090a180f35b3461018b57602036600319011261018b576004356103c4816102b2565b60018060a01b03166000526003602052602060ff604060002054166040519015158152f35b3461018b57600036600319011261018b576001546040516001600160a01b039091168152602090f35b3461018b57600036600319011261018b576020600454604051908152f35b3461018b57602036600319011261018b577fe4f65e2ca2c83e5b4ae9247816d99b62550f320cc4196d714109b21c3dc096566020600435610470816102b2565b6000546001600160a01b03919061048a9083163314610828565b168060005260038252604060002060ff198154169055604051908152a1005b3461018b57600036600319011261018b576020600554604051908152f35b3461018b576000806003193601126102af576104ed60018060a01b038254163314610828565b60ff60a01b19600154166001557fa6a833a748bb4239edb6bf29967ce0844bdde1213bfe417b50e53be0f763413d6020604051838152a180f35b3461018b57604036600319011261018b57610016600435610547816102b2565b6000546001600160a01b031661055e338214610828565b60243591611a29565b3461018b57600036600319011261018b576000546040516001600160a01b039091168152602090f35b3461018b57600036600319011261018b576040516006602160991b018152602090f35b3461018b57600036600319011261018b57602060405173ba12222222228d8ba445958a75a0704d566bf2c88152f35b3461018b57600036600319011261018b5760606004546005546006549060405192835260208301526040820152f35b3461018b57600036600319011261018b576020600654604051908152f35b9181601f8401121561018b5782359167ffffffffffffffff831161018b576020808501948460051b01011161018b57565b3461018b57608036600319011261018b5767ffffffffffffffff60043581811161018b5761069290369060040161062f565b9060243583811161018b576106ab90369060040161062f565b9060443585811161018b576106c490369060040161062f565b92909160643596871161018b576106e261001697369060040161015d565b969095611022565b3461018b57602036600319011261018b577f7dae230f18360d76a040c81f050aa14eb9d6dc7901b20fc5d855e2a20fe814d1602060043561072a816102b2565b6000546001600160a01b0391906107449083163314610828565b16806bffffffffffffffffffffffff60a01b6001541617600155604051908152a1005b3461018b57606036600319011261018b5760043560443567ffffffffffffffff811161018b5761079b90369060040161015d565b60025491926001600160a01b0392909190831633036107e357836107c491610016950190611654565b509060008113156107d957915b339116611a29565b50602435916107d1565b60405162461bcd60e51b815260206004820152601d60248201527f4f5243413a2063616c6c6261636b206e616f206175746f72697a61646f0000006044820152606490fd5b1561082f57565b60405162461bcd60e51b81526020600482015260096024820152682737ba1037bbb732b960b91b6044820152606490fd5b60ff60015460a01c16610a125761087a6051831015610a49565b61089661089061088a8484610a87565b90610acb565b60601c90565b906108aa6108a48483610a98565b90610afc565b6108b5811515610b19565b6108e263ffffffff6108d96108d36108cd8887610aa9565b90610b5b565b60e01c90565b16431115610b87565b6108ec8483610aba565b505061094f61094761094161093c61091e61091861090a8a89610be9565b356001600160f81b03191690565b60f81c90565b61093760ff821660028110159081610a06575b50610bfd565b610c53565b610c6d565b60ff1690565b851015610c7e565b61097361095a610d67565b9361096485610d81565b6001600160a01b039091169052565b61097b610d67565b9061098582610d81565b5273ba12222222228d8ba445958a75a0704d566bf2c890813b1561018b57600080946109c860405197889687958694632e1c224f60e11b86523060048701610daf565b03925af180156102a1576109ed575b506109eb6109e6600454610e60565b600455565b565b806109fa610a0092610cd8565b80610232565b386109d7565b60049150111538610931565b60405162461bcd60e51b815260206004820152600f60248201526e10dbdb9d1c9858dd081ada5b1b1959608a1b6044820152606490fd5b15610a5057565b60405162461bcd60e51b815260206004820152600f60248201526e149bdd5d19481d1bdbc81cda1bdc9d608a1b6044820152606490fd5b9060281161018b5760140190601490565b9060481161018b5760280190602090565b90604c1161018b5760480190600490565b9060501161018b57604c0190600490565b6bffffffffffffffffffffffff199035818116939260148110610aed57505050565b60140360031b82901b16169150565b359060208110610b0a575090565b6000199060200360031b1b1690565b15610b2057565b60405162461bcd60e51b8152602060048201526013602482015272125b9d985b1a59081b1bd85b88185b5bdd5b9d606a1b6044820152606490fd5b6001600160e01b03199035818116939260048110610b7857505050565b60040360031b82901b16169150565b15610b8e57565b60405162461bcd60e51b815260206004820152601760248201527f426c6f636b20646561646c696e652065786365656465640000000000000000006044820152606490fd5b634e487b7160e01b600052603260045260246000fd5b9060501015610bf85760500190565b610bd3565b15610c0457565b60405162461bcd60e51b8152602060048201526011602482015270125b9d985b1a59081a1bdc0818dbdd5b9d607a1b6044820152606490fd5b634e487b7160e01b600052601160045260246000fd5b60ff60299116029060ff8216918203610c6857565b610c3d565b60ff166051019060ff8211610c6857565b15610c8557565b60405162461bcd60e51b81526020600482015260156024820152740a4deeae8ca40d8cadccee8d040dad2e6dac2e8c6d605b1b6044820152606490fd5b634e487b7160e01b600052604160045260246000fd5b67ffffffffffffffff8111610cec57604052565b610cc2565b6040810190811067ffffffffffffffff821117610cec57604052565b60e0810190811067ffffffffffffffff821117610cec57604052565b6080810190811067ffffffffffffffff821117610cec57604052565b90601f8019910116810190811067ffffffffffffffff821117610cec57604052565b60405190610d7482610cf1565b6001825260203681840137565b805115610bf85760200190565b908060209392818452848401376000828201840152601f01601f1916010190565b6001600160a01b0391821681526080602080830182905284519183018290529796949593919260a0840192890191906000905b8a838310610e3a575050505050818103604083015286808651928381520195019060005b818110610e2657505050610e239495506060818503910152610d8e565b90565b825187529588019591880191600101610e06565b845182168652948501949093019260019190910190610de2565b6040513d6000823e3d90fd5b6000198114610c685760010190565b15610e7657565b60405162461bcd60e51b815260206004820152600e60248201526d24b73b30b634b21031b0b63632b960911b6044820152606490fd5b9015610bf85790565b15610ebc57565b60405162461bcd60e51b815260206004820152601760248201527f4f5243413a20646561646c696e652065786365656465640000000000000000006044820152606490fd5b35610e23816102b2565b15610f1257565b60405162461bcd60e51b815260206004820152600a6024820152694f5243413a204c4f535360b01b6044820152606490fd5b91908203918211610c6857565b15610f5857565b60405162461bcd60e51b815260206004820152601760248201527f4f5243413a2063616e6e6f74207265706179206c6f616e0000000000000000006044820152606490fd5b90633b9aca0091828102928184041490151715610c6857565b81810292918115918404141715610c6857565b15610fd057565b60405162461bcd60e51b815260206004820152601a60248201527f4f5243413a2070726f6669742062656c6f77206d696e696d756d0000000000006044820152606490fd5b91908201809211610c6857565b94969295939190953373ba12222222228d8ba445958a75a0704d566bf2c81461104a90610e6f565b61105391610eac565b359561105e91610eac565b356110698284610aa9565b63ffffffff9391849161107b91610b5b565b60e01c1643111561108b90610eb5565b6110958185610aba565b61109e91610b5b565b60e01c906110ac9085610be9565b3560f81c936110bb8787610eac565b6110c490610f01565b6110cd906118f1565b946110d88888610eac565b6110e190610f01565b906110eb9261121c565b6110f58686610eac565b6110fe90610f01565b611107906118f1565b9361111481861015610f0b565b61111e9085610f44565b9261112b83851015610f51565b6111358385610f44565b911661114090610f9d565b111561114b90610fc9565b6111558187611015565b61115f8686610eac565b61116890610f01565b9061117291611982565b61117b91610f44565b9182801515947f41b03896e147216703c4c4b2d1d24275bf6ea501d3eb48a9369bb73f1f980fe7956111ed575b506111bf91506111ba90600554611015565b600555565b6111e85a6040519384934397859094939260609260808301968352602083015260408201520152565b0390a2565b6111fd6112029161121494610eac565b610f01565b6001546001600160a01b031690611a29565b3882816111a8565b909160009182915b60ff80861690841610156112955760289061124461094161093c86610c53565b830160609160808235841c936014840135901c9485930135881a16151560001461128757611271926112e5565b9160ff809116908114610c685760010191611224565b611290926114ae565b611271565b5050505050565b9081602091031261018b575190565b156112b257565b60405162461bcd60e51b815260206004820152600b60248201526a16995c9bc81bdd5d1c1d5d60aa1b6044820152606490fd5b6040516370a0823160e01b8082523060048301526020946001600160a01b0385811695939492939192919087866024818a5afa9384156102a15788966000956113e0575b506113338461173e565b50929091168098106000146113c157938361135561135b936113629784611699565b93611a29565b30916118a5565b60405190815230600482015291829060249082905afa9081156102a1576109eb92600092611394575b505015156112ab565b6113b39250803d106113ba575b6113ab8183610d45565b81019061129c565b388061138b565b503d6113a1565b93836113556113db966113d49484611699565b3091611812565b611362565b6113f8919550873d89116113ba576113ab8183610d45565b9338611329565b93909195949260018060a01b038093168552602096151587860152604085015216606083015260a060808301528051908160a084015260005b82811061145a57505060c09293506000838284010152601f8019910116010190565b81810186015184820160c001528501611438565b3d156114a9573d9067ffffffffffffffff8211610cec576040519161149d601f8201601f191660200184610d45565b82523d6000602084013e565b606090565b6040516370a0823160e01b815230600482015260209390929091906001600160a01b0380841690821690811091908690869060249082905afa9384156102a1576000958695869361158d928592611635575b50604080516001600160a01b039283168c82019081529290951660208301528491010390611536601f1992838101865285610d45565b600280546001600160a01b0319166001600160a01b038916179055858514611617576115816401000276a4945b6040519586938d850199630251596160e31b8b5230602487016113ff565b03908101835282610d45565b51925af19061159a61146e565b600280546001600160a01b031916905591156115b4575050565b815191826116145760405162461bcd60e51b815260206004820152602a60248201527f56332073776170206661696c6564202873656d2072657665727420726561736f6044820152696e20646f20706f6f6c2960b01b6064820152608490fd5b01fd5b61158173fffd8963efd1fc6a506488495d951d5263988d2594611563565b61164d9192508a3d8c116113ba576113ab8183610d45565b9038611500565b919082604091031261018b576020823561166d816102b2565b920135610e23816102b2565b8115611683570490565b634e487b7160e01b600052601260045260246000fd5b9190801591821580611721575b156116ed576103e593848102948186041490151715610c68576116c99084610fb6565b916103e8808302928304141715610c6857610e23926116e791611015565b90611679565b60405162461bcd60e51b815260206004820152600c60248201526b4e6f206c697175696469747960a01b6044820152606490fd5b508015156116a6565b51906001600160701b038216820361018b57565b604051630240bc6b60e21b60208201908152600482529061175e81610cf1565b6000928392839251915afa9161177261146e565b9280611806575b156117cc576060838051810103126117c8576117976020840161172a565b60606117a56040860161172a565b9401519263ffffffff841684036102af57506001600160701b0380911693169190565b5080fd5b60405162461bcd60e51b815260206004820152601260248201527119d95d14995cd95c9d995cc819985a5b195960721b6044820152606490fd5b50606083511015611779565b6000929183809360405190602082019363022c0d9f60e01b8552602483015282604483015260018060a01b03166064820152608060848201528160a482015260a4815261185e81610d0d565b51925af161186a61146e565b501561187257565b60405162461bcd60e51b815260206004820152600b60248201526a14ddd85c0819985a5b195960aa1b6044820152606490fd5b6000929183809360405190602082019363022c0d9f60e01b8552836024840152604483015260018060a01b03166064820152608060848201528160a482015260a4815261185e81610d0d565b6040516370a0823160e01b815230600482015290602090829060249082906001600160a01b03165afa9081156102a15760009161192c575090565b610e23915060203d81116113ba576113ab8183610d45565b1561194b57565b60405162461bcd60e51b815260206004820152600f60248201526e151c985b9cd9995c8819985a5b1959608a1b6044820152606490fd5b90604051602081019163a9059cbb60e01b835273ba12222222228d8ba445958a75a0704d566bf2c860248301526044820152604481526119c181610d29565b600092839283809351925af16119d561146e565b816119e6575b506109eb9150611944565b8051801592508215611a00575b50506109eb9150386119db565b81925090602091810103126117c857602001519081151582036102af57506109eb9038806119f3565b60405163a9059cbb60e01b602082019081526001600160a01b039093166024820152604480820194909452928352916119c181610d2956fea26469706673582212207bc2a26d7346f80df8b899452bb0e46498e3862ea408bf9b8697b6ff3b8e7aec64736f6c63430008130033","linkReferences":{}},"methodIdentifiers":{"BALANCER_VAULT()":"bc163846","WETH()":"ad5c4648","authorizeCaller(address)":"2c388d5d","authorizedCallers(address)":"536fff6c","deauthorizeCaller(address)":"6873c21d","execute(bytes)":"09c5eabe","failedExecutions()":"ddc41435","getStats()":"c59d4847","kill()":"41c0e1b5","killed()":"1f3a0e41","owner()":"8da5cb5b","receiveFlashLoan(address[],uint256[],uint256[],bytes)":"f04f2707","rescueERC20(address,uint256)":"8cd4426d","rescueETH()":"20800a00","setTreasury(address)":"f0f44260","totalExecutions()":"642f7d5e","totalProfit()":"86001519","treasury()":"61d027b3","uniswapV3SwapCallback(int256,int256,bytes)":"fa461e33","unkill()":"8abe28a3"},"id":0}