{"abi":[{"type":"constructor","inputs":[{"name":"_treasury","type":"address","internalType":"address"}],"stateMutability":"nonpayable"},{"type":"fallback","stateMutability":"payable"},{"type":"receive","stateMutability":"payable"},{"type":"function","name":"BALANCER_VAULT","inputs":[],"outputs":[{"name":"","type":"address","internalType":"address"}],"stateMutability":"view"},{"type":"function","name":"WETH","inputs":[],"outputs":[{"name":"","type":"address","internalType":"address"}],"stateMutability":"view"},{"type":"function","name":"authorizeCaller","inputs":[{"name":"caller","type":"address","internalType":"address"}],"outputs":[],"stateMutability":"nonpayable"},{"type":"function","name":"authorizedCallers","inputs":[{"name":"","type":"address","internalType":"address"}],"outputs":[{"name":"","type":"bool","internalType":"bool"}],"stateMutability":"view"},{"type":"function","name":"deauthorizeCaller","inputs":[{"name":"caller","type":"address","internalType":"address"}],"outputs":[],"stateMutability":"nonpayable"},{"type":"function","name":"execute","inputs":[{"name":"route","type":"bytes","internalType":"bytes"}],"outputs":[],"stateMutability":"nonpayable"},{"type":"function","name":"failedExecutions","inputs":[],"outputs":[{"name":"","type":"uint256","internalType":"uint256"}],"stateMutability":"view"},{"type":"function","name":"getStats","inputs":[],"outputs":[{"name":"","type":"uint256","internalType":"uint256"},{"name":"","type":"uint256","internalType":"uint256"},{"name":"","type":"uint256","internalType":"uint256"}],"stateMutability":"view"},{"type":"function","name":"kill","inputs":[],"outputs":[],"stateMutability":"nonpayable"},{"type":"function","name":"killed","inputs":[],"outputs":[{"name":"","type":"bool","internalType":"bool"}],"stateMutability":"view"},{"type":"function","name":"owner","inputs":[],"outputs":[{"name":"","type":"address","internalType":"address"}],"stateMutability":"view"},{"type":"function","name":"receiveFlashLoan","inputs":[{"name":"tokens","type":"address[]","internalType":"address[]"},{"name":"amounts","type":"uint256[]","internalType":"uint256[]"},{"name":"feeAmounts","type":"uint256[]","internalType":"uint256[]"},{"name":"userData","type":"bytes","internalType":"bytes"}],"outputs":[],"stateMutability":"nonpayable"},{"type":"function","name":"rescueERC20","inputs":[{"name":"token","type":"address","internalType":"address"},{"name":"amount","type":"uint256","internalType":"uint256"}],"outputs":[],"stateMutability":"nonpayable"},{"type":"function","name":"rescueETH","inputs":[],"outputs":[],"stateMutability":"nonpayable"},{"type":"function","name":"setTreasury","inputs":[{"name":"_treasury","type":"address","internalType":"address"}],"outputs":[],"stateMutability":"nonpayable"},{"type":"function","name":"totalExecutions","inputs":[],"outputs":[{"name":"","type":"uint256","internalType":"uint256"}],"stateMutability":"view"},{"type":"function","name":"totalProfit","inputs":[],"outputs":[{"name":"","type":"uint256","internalType":"uint256"}],"stateMutability":"view"},{"type":"function","name":"treasury","inputs":[],"outputs":[{"name":"","type":"address","internalType":"address"}],"stateMutability":"view"},{"type":"function","name":"uniswapV3SwapCallback","inputs":[{"name":"amount0Delta","type":"int256","internalType":"int256"},{"name":"amount1Delta","type":"int256","internalType":"int256"},{"name":"data","type":"bytes","internalType":"bytes"}],"outputs":[],"stateMutability":"nonpayable"},{"type":"function","name":"unkill","inputs":[],"outputs":[],"stateMutability":"nonpayable"},{"type":"event","name":"ArbExecuted","inputs":[{"name":"blockNumber","type":"uint256","indexed":true,"internalType":"uint256"},{"name":"inputAmount","type":"uint256","indexed":false,"internalType":"uint256"},{"name":"outputAmount","type":"uint256","indexed":false,"internalType":"uint256"},{"name":"netProfit","type":"uint256","indexed":false,"internalType":"uint256"},{"name":"gasUsed","type":"uint256","indexed":false,"internalType":"uint256"}],"anonymous":false},{"type":"event","name":"CallerAuthorized","inputs":[{"name":"caller","type":"address","indexed":false,"internalType":"address"}],"anonymous":false},{"type":"event","name":"CallerDeauthorized","inputs":[{"name":"caller","type":"address","indexed":false,"internalType":"address"}],"anonymous":false},{"type":"event","name":"KillSwitch","inputs":[{"name":"active","type":"bool","indexed":false,"internalType":"bool"}],"anonymous":false},{"type":"event","name":"TreasuryUpdated","inputs":[{"name":"newTreasury","type":"address","indexed":false,"internalType":"address"}],"anonymous":false}],"bytecode":{"object":"0x6080806040523461015c5760208161258a803803809161001f8285610160565b83398101031261015c57516001600160a01b0381169081900361015c575f80546001600160a01b03191633178155600180546001600160a81b0319169290921790915560405163095ea7b360e01b6020820190815273ba12222222228d8ba445958a75a0704d566bf2c860248301525f19604480840191909152825282916100a8606482610160565b5190827342000000000000000000000000000000000000065af13d15610157573d6001600160401b03811161014357604051906100ef601f8201601f191660200183610160565b81525f60203d92013e5b1561010d5760405161240690816101848239f35b60405162461bcd60e51b815260206004820152600e60248201526d105c1c1c9bdd994819985a5b195960921b6044820152606490fd5b634e487b7160e01b5f52604160045260245ffd5b6100f9565b5f80fd5b601f909101601f19168101906001600160401b038211908210176101435760405256fe60806040526004361015610010575b005b5f3560e01c806309c5eabe1461014f5780631f3a0e411461014a57806320800a00146101455780632c388d5d1461014057806341c0e1b51461013b578063536fff6c1461013657806361d027b314610131578063642f7d5e1461012c5780636873c21d1461012757806386001519146101225780638abe28a31461011d5780638cd4426d146101185780638da5cb5b14610113578063ad5c46481461010e578063bc16384614610109578063c59d484714610104578063ddc41435146100ff578063f04f2707146100fa578063f0f44260146100f55763fa461e330361000e57610ae4565b610a2f565b610970565b610904565b6108b8565b61086c565b610820565b6107d0565b610766565b6106c2565b610687565b6105cb565b610590565b61053f565b6104d3565b610417565b610358565b6102c5565b610282565b610186565b9181601f840112156101825782359167ffffffffffffffff8311610182576020838186019501011161018257565b5f80fd5b346101825760207ffffffffffffffffffffffffffffffffffffffffffffffffffffffffffffffffc3601126101825760043567ffffffffffffffff8111610182576101d5903690600401610154565b73ffffffffffffffffffffffffffffffffffffffff5f541633148015610262575b156102045761000e91610bfb565b60646040517f08c379a000000000000000000000000000000000000000000000000000000000815260206004820152600e60248201527f4e6f7420617574686f72697a65640000000000000000000000000000000000006044820152fd5b50335f52600360205260ff60405f2054166101f6565b5f91031261018257565b34610182575f7ffffffffffffffffffffffffffffffffffffffffffffffffffffffffffffffffc36011261018257602060ff60015460a01c166040519015158152f35b34610182575f7ffffffffffffffffffffffffffffffffffffffffffffffffffffffffffffffffc360112610182575f80808073ffffffffffffffffffffffffffffffffffffffff81541661031a81331461142c565b4790828215610331575bf11561032c57005b6113f4565b506108fc610324565b73ffffffffffffffffffffffffffffffffffffffff81160361018257565b346101825760207ffffffffffffffffffffffffffffffffffffffffffffffffffffffffffffffffc360112610182577f6acfd92212f0ec670af78f8ba2273e4a85ac17023475650c25be0440602bff2d602073ffffffffffffffffffffffffffffffffffffffff6004356103cb8161033a565b6103d9825f5416331461142c565b16805f526003825260405f2060017fffffffffffffffffffffffffffffffffffffffffffffffffffffffffffffff00825416179055604051908152a1005b34610182575f7ffffffffffffffffffffffffffffffffffffffffffffffffffffffffffffffffc3601126101825761046773ffffffffffffffffffffffffffffffffffffffff5f5416331461142c565b740100000000000000000000000000000000000000007fffffffffffffffffffffff00ffffffffffffffffffffffffffffffffffffffff60015416176001557fa6a833a748bb4239edb6bf29967ce0844bdde1213bfe417b50e53be0f763413d602060405160018152a1005b346101825760207ffffffffffffffffffffffffffffffffffffffffffffffffffffffffffffffffc3601126101825773ffffffffffffffffffffffffffffffffffffffff6004356105238161033a565b165f526003602052602060ff60405f2054166040519015158152f35b34610182575f7ffffffffffffffffffffffffffffffffffffffffffffffffffffffffffffffffc36011261018257602073ffffffffffffffffffffffffffffffffffffffff60015416604051908152f35b34610182575f7ffffffffffffffffffffffffffffffffffffffffffffffffffffffffffffffffc360112610182576020600454604051908152f35b346101825760207ffffffffffffffffffffffffffffffffffffffffffffffffffffffffffffffffc360112610182577fe4f65e2ca2c83e5b4ae9247816d99b62550f320cc4196d714109b21c3dc09656602073ffffffffffffffffffffffffffffffffffffffff60043561063e8161033a565b61064c825f5416331461142c565b16805f526003825260405f207fffffffffffffffffffffffffffffffffffffffffffffffffffffffffffffff008154169055604051908152a1005b34610182575f7ffffffffffffffffffffffffffffffffffffffffffffffffffffffffffffffffc360112610182576020600554604051908152f35b34610182575f7ffffffffffffffffffffffffffffffffffffffffffffffffffffffffffffffffc3601126101825761071273ffffffffffffffffffffffffffffffffffffffff5f5416331461142c565b7fffffffffffffffffffffff00ffffffffffffffffffffffffffffffffffffffff600154166001557fa6a833a748bb4239edb6bf29967ce0844bdde1213bfe417b50e53be0f763413d60206040515f8152a1005b346101825760407ffffffffffffffffffffffffffffffffffffffffffffffffffffffffffffffffc3601126101825761000e6004356107a48161033a565b73ffffffffffffffffffffffffffffffffffffffff5f54166107c781331461142c565b60243591611a09565b34610182575f7ffffffffffffffffffffffffffffffffffffffffffffffffffffffffffffffffc36011261018257602073ffffffffffffffffffffffffffffffffffffffff5f5416604051908152f35b34610182575f7ffffffffffffffffffffffffffffffffffffffffffffffffffffffffffffffffc3601126101825760206040517342000000000000000000000000000000000000068152f35b34610182575f7ffffffffffffffffffffffffffffffffffffffffffffffffffffffffffffffffc36011261018257602060405173ba12222222228d8ba445958a75a0704d566bf2c88152f35b34610182575f7ffffffffffffffffffffffffffffffffffffffffffffffffffffffffffffffffc3601126101825760606004546005546006549060405192835260208301526040820152f35b34610182575f7ffffffffffffffffffffffffffffffffffffffffffffffffffffffffffffffffc360112610182576020600654604051908152f35b9181601f840112156101825782359167ffffffffffffffff8311610182576020808501948460051b01011161018257565b346101825760807ffffffffffffffffffffffffffffffffffffffffffffffffffffffffffffffffc3601126101825760043567ffffffffffffffff8111610182576109bf90369060040161093f565b60243567ffffffffffffffff8111610182576109df90369060040161093f565b60449391933567ffffffffffffffff811161018257610a0290369060040161093f565b916064359567ffffffffffffffff871161018257610a2761000e973690600401610154565b9690956116e6565b346101825760207ffffffffffffffffffffffffffffffffffffffffffffffffffffffffffffffffc360112610182577f7dae230f18360d76a040c81f050aa14eb9d6dc7901b20fc5d855e2a20fe814d1602073ffffffffffffffffffffffffffffffffffffffff600435610aa28161033a565b610ab0825f5416331461142c565b16807fffffffffffffffffffffffff00000000000000000000000000000000000000006001541617600155604051908152a1005b346101825760607ffffffffffffffffffffffffffffffffffffffffffffffffffffffffffffffffc3601126101825760043560243560443567ffffffffffffffff811161018257610b39903690600401610154565b73ffffffffffffffffffffffffffffffffffffffff600294929454163303610b9d5783610b6b9161000e9501906118b6565b50915f821315610b955750905b73ffffffffffffffffffffffffffffffffffffffff339116611a09565b905090610b78565b60646040517f08c379a000000000000000000000000000000000000000000000000000000000815260206004820152601d60248201527f4f5243413a2063616c6c6261636b206e616f206175746f72697a61646f0000006044820152fd5b9060ff60015460a01c16610dfc57610c166051821015610e5a565b610c32610c2c610c268385610ebf565b90610f03565b60601c90565b610c45610c3f8385610ed0565b90610f69565b90610c51821515610fa4565b610c7e63ffffffff610c75610c6f610c698789610ee1565b90611009565b60e01c90565b1643111561106f565b610c888385610ef2565b5050610d03610cfb610cf5610cf0610cd2610ccc610ca6898b611101565b357fff000000000000000000000000000000000000000000000000000000000000001690565b60f81c90565b610ceb60ff821660028110159081610df0575b50611115565b6111a7565b6111c1565b60ff1690565b8410156111d2565b610d33610d0e6112aa565b91610d18836112ea565b9073ffffffffffffffffffffffffffffffffffffffff169052565b610d3b6112aa565b91610d45836112ea565b5273ba12222222228d8ba445958a75a0704d566bf2c83b1561018257610d9b5f9360405195869485947f5c38449e0000000000000000000000000000000000000000000000000000000086523060048701611335565b03818373ba12222222228d8ba445958a75a0704d566bf2c85af1801561032c57610dd6575b50610dd4610dcf6004546113ff565b600455565b565b80610de45f610dea93611264565b80610278565b5f610dc0565b6004915011155f610ce5565b60646040517f08c379a000000000000000000000000000000000000000000000000000000000815260206004820152600f60248201527f436f6e7472616374206b696c6c656400000000000000000000000000000000006044820152fd5b15610e6157565b60646040517f08c379a000000000000000000000000000000000000000000000000000000000815260206004820152600f60248201527f526f75746520746f6f2073686f727400000000000000000000000000000000006044820152fd5b906028116101825760140190601490565b906048116101825760280190602090565b90604c116101825760480190600490565b9060501161018257604c0190600490565b919091357fffffffffffffffffffffffffffffffffffffffff00000000000000000000000081169260148110610f37575050565b7fffffffffffffffffffffffffffffffffffffffff000000000000000000000000929350829060140360031b1b161690565b359060208110610f77575090565b7fffffffffffffffffffffffffffffffffffffffffffffffffffffffffffffffff9060200360031b1b1690565b15610fab57565b60646040517f08c379a000000000000000000000000000000000000000000000000000000000815260206004820152601360248201527f496e76616c6964206c6f616e20616d6f756e74000000000000000000000000006044820152fd5b919091357fffffffff000000000000000000000000000000000000000000000000000000008116926004811061103d575050565b7fffffffff00000000000000000000000000000000000000000000000000000000929350829060040360031b1b161690565b1561107657565b60646040517f08c379a000000000000000000000000000000000000000000000000000000000815260206004820152601760248201527f426c6f636b20646561646c696e652065786365656465640000000000000000006044820152fd5b7f4e487b71000000000000000000000000000000000000000000000000000000005f52603260045260245ffd5b90605010156111105760500190565b6110d4565b1561111c57565b60646040517f08c379a000000000000000000000000000000000000000000000000000000000815260206004820152601160248201527f496e76616c696420686f7020636f756e740000000000000000000000000000006044820152fd5b7f4e487b71000000000000000000000000000000000000000000000000000000005f52601160045260245ffd5b60ff60299116029060ff82169182036111bc57565b61117a565b60ff166051019060ff82116111bc57565b156111d957565b60646040517f08c379a000000000000000000000000000000000000000000000000000000000815260206004820152601560248201527f526f757465206c656e677468206d69736d6174636800000000000000000000006044820152fd5b7f4e487b71000000000000000000000000000000000000000000000000000000005f52604160045260245ffd5b90601f7fffffffffffffffffffffffffffffffffffffffffffffffffffffffffffffffe0910116810190811067ffffffffffffffff8211176112a557604052565b611237565b604080519091906112bb8382611264565b60018152917fffffffffffffffffffffffffffffffffffffffffffffffffffffffffffffffe001366020840137565b8051156111105760200190565b601f82602094937fffffffffffffffffffffffffffffffffffffffffffffffffffffffffffffffe093818652868601375f8582860101520116010190565b9095949293919573ffffffffffffffffffffffffffffffffffffffff6080830191168252608060208301528651809152602060a083019701905f5b8181106113c85750505080860360408201526020808551978881520194015f965b8088106113b05750506113ad94955060608185039101526112f7565b90565b90946020806001928851815201960197019690611391565b825173ffffffffffffffffffffffffffffffffffffffff16895260209889019890920191600101611370565b6040513d5f823e3d90fd5b7fffffffffffffffffffffffffffffffffffffffffffffffffffffffffffffffff81146111bc5760010190565b1561143357565b60646040517f08c379a000000000000000000000000000000000000000000000000000000000815260206004820152600960248201527f4e6f74206f776e657200000000000000000000000000000000000000000000006044820152fd5b1561149857565b60646040517f08c379a000000000000000000000000000000000000000000000000000000000815260206004820152600e60248201527f496e76616c69642063616c6c65720000000000000000000000000000000000006044820152fd5b90156111105790565b1561150657565b60646040517f08c379a000000000000000000000000000000000000000000000000000000000815260206004820152601760248201527f4f5243413a20646561646c696e652065786365656465640000000000000000006044820152fd5b356113ad8161033a565b1561157557565b60646040517f08c379a000000000000000000000000000000000000000000000000000000000815260206004820152600a60248201527f4f5243413a204c4f5353000000000000000000000000000000000000000000006044820152fd5b919082039182116111bc57565b156115e757565b60646040517f08c379a000000000000000000000000000000000000000000000000000000000815260206004820152601760248201527f4f5243413a2063616e6e6f74207265706179206c6f616e0000000000000000006044820152fd5b90633b9aca00820291808304633b9aca0014901517156111bc57565b818102929181159184041417156111bc57565b1561167b57565b60646040517f08c379a000000000000000000000000000000000000000000000000000000000815260206004820152601a60248201527f4f5243413a2070726f6669742062656c6f77206d696e696d756d0000000000006044820152fd5b919082018092116111bc57565b927f41b03896e147216703c4c4b2d1d24275bf6ea501d3eb48a9369bb73f1f980fe7969497919561173c611743926118329561173773ba12222222228d8ba445958a75a0704d566bf2c83314611491565b6114f6565b35986114f6565b359061176663ffffffff61175d610c6f610c69858a610ee1565b164311156114ff565b6117b8611789610ccc610ca6611782610c6f610c69878c610ef2565b9489611101565b956117a461179f61179a8a896114f6565b611564565b611a79565b966117b261179a8a896114f6565b91611b00565b61180e6117e16117ce61179f61179a8a896114f6565b966117db8189101561156e565b876115d3565b916117ee848410156115e0565b61180763ffffffff61180086866115d3565b9216611645565b1115611674565b61182d61181b838a6116d9565b61182861179a89886114f6565b611938565b6115d3565b80938161187f575b50611851915061184c906005546116d9565b600555565b61187a5a6040519384934397859094939260609260808301968352602083015260408201520152565b0390a2565b61179a61188f916118ae946114f6565b60015473ffffffffffffffffffffffffffffffffffffffff1690611a09565b5f828161183a565b919082604091031261018257602082356118cf8161033a565b9201356113ad8161033a565b3d15611933573d9067ffffffffffffffff82116112a5576040519161192860207fffffffffffffffffffffffffffffffffffffffffffffffffffffffffffffffe0601f8401160184611264565b82523d5f602084013e565b606090565b5f919082918260405160208101927fa9059cbb00000000000000000000000000000000000000000000000000000000845273ba12222222228d8ba445958a75a0704d566bf2c86024830152604482015260448152611997606482611264565b51925af16119a36118db565b50156119ab57565b60646040517f08c379a000000000000000000000000000000000000000000000000000000000815260206004820152600f60248201527f5472616e73666572206661696c656400000000000000000000000000000000006044820152fd5b5f92918380936040519073ffffffffffffffffffffffffffffffffffffffff60208301947fa9059cbb000000000000000000000000000000000000000000000000000000008652166024830152604482015260448152611997606482611264565b90816020910312610182575190565b602073ffffffffffffffffffffffffffffffffffffffff916024604051809481937f70a08231000000000000000000000000000000000000000000000000000000008352306004840152165afa90811561032c575f91611ad7575090565b6113ad915060203d602011611af9575b611af18183611264565b810190611a6a565b503d611ae7565b9091905f915b60ff841660ff841610611b195750505050565b60ff60016028829383611b2e610cf0896111a7565b168601803560601c916080601483013560601c94859301355f1a1615155f14611b6557611b5a92611ecf565b940116929050611b06565b611b6e92611bef565b611b5a565b939473ffffffffffffffffffffffffffffffffffffffff60c0967fffffffffffffffffffffffffffffffffffffffffffffffffffffffffffffffe095601f9583602096168952151585890152604088015216606086015260a0608086015280519182918260a0880152018686015e5f8582860101520116010190565b6040517f70a08231000000000000000000000000000000000000000000000000000000008152306004820152929173ffffffffffffffffffffffffffffffffffffffff8084169082169081109190602090869060249082905afa93841561032c575f9586958693611d53928592611e45575b506040805173ffffffffffffffffffffffffffffffffffffffff928316602082015294909116848201528352611c98606084611264565b611cdd8673ffffffffffffffffffffffffffffffffffffffff167fffffffffffffffffffffffff00000000000000000000000000000000000000006002541617600255565b848414611e2757611d276401000276a4935b60405194859360208501987f128acb08000000000000000000000000000000000000000000000000000000008a523060248701611b73565b037fffffffffffffffffffffffffffffffffffffffffffffffffffffffffffffffe08101835282611264565b51925af1611d5f6118db565b90611d8d7fffffffffffffffffffffffff000000000000000000000000000000000000000060025416600255565b15611d955750565b80519081611e22576040517f08c379a000000000000000000000000000000000000000000000000000000000815260206004820152602a60248201527f56332073776170206661696c6564202873656d2072657665727420726561736f60448201527f6e20646f20706f6f6c29000000000000000000000000000000000000000000006064820152608490fd5b602001fd5b611d2773fffd8963efd1fc6a506488495d951d5263988d2593611cef565b611c98919250611e639060203d602011611af957611af18183611264565b9190611c61565b15611e7157565b60646040517f08c379a000000000000000000000000000000000000000000000000000000000815260206004820152600b60248201527f5a65726f206f75747075740000000000000000000000000000000000000000006044820152fd5b6040517f70a0823100000000000000000000000000000000000000000000000000000000815230600482015273ffffffffffffffffffffffffffffffffffffffff831693909290602084602481885afa93841561032c575f9461200b575b5073ffffffffffffffffffffffffffffffffffffffff90611f4d84612093565b50929091168096105f14611fec579383611f6e611f7493611f7b97846121b8565b93611a09565b309161235c565b6040517f70a0823100000000000000000000000000000000000000000000000000000000815230600482015290602090829060249082905afa801561032c57610dd4915f91611fcd575b501515611e6a565b611fe6915060203d602011611af957611af18183611264565b5f611fc5565b9383611f6e61200696611fff94846121b8565b3091612276565b611f7b565b73ffffffffffffffffffffffffffffffffffffffff91945061203b9060203d602011611af957611af18183611264565b9390611f2d565b51906dffffffffffffffffffffffffffff8216820361018257565b908160609103126101825761207181612042565b91604061208060208401612042565b92015163ffffffff811681036101825790565b5f809160405160208101907f0902f1ac000000000000000000000000000000000000000000000000000000008252600481526120d0602482611264565b51915afa6120dc6118db565b9080612175575b15612117576dffffffffffffffffffffffffffff9161210c82602080869551830101910161205d565b949091169392169190565b60646040517f08c379a000000000000000000000000000000000000000000000000000000000815260206004820152601260248201527f6765745265736572766573206661696c656400000000000000000000000000006044820152fd5b506060815110156120e3565b811561218b570490565b7f4e487b71000000000000000000000000000000000000000000000000000000005f52601260045260245ffd5b919080159182158061226d575b1561220f576103e58402938085046103e514901517156111bc576121e99084611661565b916103e882029182046103e81417156111bc576113ad92612209916116d9565b90612181565b60646040517f08c379a000000000000000000000000000000000000000000000000000000000815260206004820152600c60248201527f4e6f206c697175696469747900000000000000000000000000000000000000006044820152fd5b508015156121c5565b5f929183809373ffffffffffffffffffffffffffffffffffffffff6040519160208301947f022c0d9f0000000000000000000000000000000000000000000000000000000086526024840152836044840152166064820152608060848201528160a482015260a481526122ea60c482611264565b51925af16122f66118db565b50156122fe57565b60646040517f08c379a000000000000000000000000000000000000000000000000000000000815260206004820152600b60248201527f53776170206661696c65640000000000000000000000000000000000000000006044820152fd5b5f929183809373ffffffffffffffffffffffffffffffffffffffff6040519160208301947f022c0d9f0000000000000000000000000000000000000000000000000000000086528460248501526044840152166064820152608060848201528160a482015260a481526122ea60c48261126456fea264697066735822122060cb30b02c36fa73cf8b9eb4bb8c5a79d678ab7719cbe8227d17e672b8f71fc864736f6c63430008230033","linkReferences":{}},"methodIdentifiers":{"BALANCER_VAULT()":"bc163846","WETH()":"ad5c4648","authorizeCaller(address)":"2c388d5d","authorizedCallers(address)":"536fff6c","deauthorizeCaller(address)":"6873c21d","execute(bytes)":"09c5eabe","failedExecutions()":"ddc41435","getStats()":"c59d4847","kill()":"41c0e1b5","killed()":"1f3a0e41","owner()":"8da5cb5b","receiveFlashLoan(address[],uint256[],uint256[],bytes)":"f04f2707","rescueERC20(address,uint256)":"8cd4426d","rescueETH()":"20800a00","setTreasury(address)":"f0f44260","totalExecutions()":"642f7d5e","totalProfit()":"86001519","treasury()":"61d027b3","uniswapV3SwapCallback(int256,int256,bytes)":"fa461e33","unkill()":"8abe28a3"},"id":0}