{"abi":[{"type":"constructor","inputs":[{"name":"_treasury","type":"address","internalType":"address"}],"stateMutability":"nonpayable"},{"type":"fallback","stateMutability":"payable"},{"type":"receive","stateMutability":"payable"},{"type":"function","name":"BALANCER_VAULT","inputs":[],"outputs":[{"name":"","type":"address","internalType":"address"}],"stateMutability":"view"},{"type":"function","name":"WETH","inputs":[],"outputs":[{"name":"","type":"address","internalType":"address"}],"stateMutability":"view"},{"type":"function","name":"authorizeCaller","inputs":[{"name":"caller","type":"address","internalType":"address"}],"outputs":[],"stateMutability":"nonpayable"},{"type":"function","name":"authorizedCallers","inputs":[{"name":"","type":"address","internalType":"address"}],"outputs":[{"name":"","type":"bool","internalType":"bool"}],"stateMutability":"view"},{"type":"function","name":"deauthorizeCaller","inputs":[{"name":"caller","type":"address","internalType":"address"}],"outputs":[],"stateMutability":"nonpayable"},{"type":"function","name":"execute","inputs":[{"name":"route","type":"bytes","internalType":"bytes"}],"outputs":[],"stateMutability":"nonpayable"},{"type":"function","name":"failedExecutions","inputs":[],"outputs":[{"name":"","type":"uint256","internalType":"uint256"}],"stateMutability":"view"},{"type":"function","name":"getStats","inputs":[],"outputs":[{"name":"","type":"uint256","internalType":"uint256"},{"name":"","type":"uint256","internalType":"uint256"},{"name":"","type":"uint256","internalType":"uint256"}],"stateMutability":"view"},{"type":"function","name":"kill","inputs":[],"outputs":[],"stateMutability":"nonpayable"},{"type":"function","name":"killed","inputs":[],"outputs":[{"name":"","type":"bool","internalType":"bool"}],"stateMutability":"view"},{"type":"function","name":"owner","inputs":[],"outputs":[{"name":"","type":"address","internalType":"address"}],"stateMutability":"view"},{"type":"function","name":"receiveFlashLoan","inputs":[{"name":"tokens","type":"address[]","internalType":"address[]"},{"name":"amounts","type":"uint256[]","internalType":"uint256[]"},{"name":"feeAmounts","type":"uint256[]","internalType":"uint256[]"},{"name":"userData","type":"bytes","internalType":"bytes"}],"outputs":[],"stateMutability":"nonpayable"},{"type":"function","name":"rescueERC20","inputs":[{"name":"token","type":"address","internalType":"address"},{"name":"amount","type":"uint256","internalType":"uint256"}],"outputs":[],"stateMutability":"nonpayable"},{"type":"function","name":"rescueETH","inputs":[],"outputs":[],"stateMutability":"nonpayable"},{"type":"function","name":"setTreasury","inputs":[{"name":"_treasury","type":"address","internalType":"address"}],"outputs":[],"stateMutability":"nonpayable"},{"type":"function","name":"totalExecutions","inputs":[],"outputs":[{"name":"","type":"uint256","internalType":"uint256"}],"stateMutability":"view"},{"type":"function","name":"totalProfit","inputs":[],"outputs":[{"name":"","type":"uint256","internalType":"uint256"}],"stateMutability":"view"},{"type":"function","name":"treasury","inputs":[],"outputs":[{"name":"","type":"address","internalType":"address"}],"stateMutability":"view"},{"type":"function","name":"unkill","inputs":[],"outputs":[],"stateMutability":"nonpayable"},{"type":"event","name":"ArbExecuted","inputs":[{"name":"blockNumber","type":"uint256","indexed":true,"internalType":"uint256"},{"name":"inputAmount","type":"uint256","indexed":false,"internalType":"uint256"},{"name":"outputAmount","type":"uint256","indexed":false,"internalType":"uint256"},{"name":"netProfit","type":"uint256","indexed":false,"internalType":"uint256"},{"name":"gasUsed","type":"uint256","indexed":false,"internalType":"uint256"}],"anonymous":false},{"type":"event","name":"CallerAuthorized","inputs":[{"name":"caller","type":"address","indexed":false,"internalType":"address"}],"anonymous":false},{"type":"event","name":"CallerDeauthorized","inputs":[{"name":"caller","type":"address","indexed":false,"internalType":"address"}],"anonymous":false},{"type":"event","name":"KillSwitch","inputs":[{"name":"active","type":"bool","indexed":false,"internalType":"bool"}],"anonymous":false},{"type":"event","name":"TreasuryUpdated","inputs":[{"name":"newTreasury","type":"address","indexed":false,"internalType":"address"}],"anonymous":false}],"bytecode":{"object":"0x6080806040523461015c57602081611fd3803803809161001f8285610160565b83398101031261015c57516001600160a01b0381169081900361015c575f80546001600160a01b03191633178155600180546001600160a81b0319169290921790915560405163095ea7b360e01b6020820190815273ba12222222228d8ba445958a75a0704d566bf2c860248301525f19604480840191909152825282916100a8606482610160565b5190827342000000000000000000000000000000000000065af13d15610157573d6001600160401b03811161014357604051906100ef601f8201601f191660200183610160565b81525f60203d92013e5b1561010d57604051611e4f90816101848239f35b60405162461bcd60e51b815260206004820152600e60248201526d105c1c1c9bdd994819985a5b195960921b6044820152606490fd5b634e487b7160e01b5f52604160045260245ffd5b6100f9565b5f80fd5b601f909101601f19168101906001600160401b038211908210176101435760405256fe6080806040526004361015610011575b005b5f905f3560e01c90816309c5eabe14611450575080631f3a0e411461140c57806320800a001461138e5780632c388d5d146112d157806341c0e1b514611213578063536fff6c146111ab57806361d027b314611159578063642f7d5e1461111d5780636873c21d1461106357806386001519146110275780638abe28a314610f815780638cd4426d14610f175780638da5cb5b14610ec6578063ad5c464814610e79578063bc16384614610e2c578063c59d484714610ddf578063ddc4143514610da3578063f04f27071461019f5763f0f442600361000f573461019c5760207ffffffffffffffffffffffffffffffffffffffffffffffffffffffffffffffffc36011261019c577f7dae230f18360d76a040c81f050aa14eb9d6dc7901b20fc5d855e2a20fe814d1602073ffffffffffffffffffffffffffffffffffffffff610159611ad2565b610167828654163314611bf4565b16807fffffffffffffffffffffffff00000000000000000000000000000000000000006001541617600155604051908152a180f35b80fd5b503461019c5760807ffffffffffffffffffffffffffffffffffffffffffffffffffffffffffffffffc36011261019c5760043567ffffffffffffffff8111610d9f576101ef903690600401611af5565b9060243567ffffffffffffffff8111610d9b57610210903690600401611af5565b91909260443567ffffffffffffffff8111610d9757610233903690600401611af5565b949060643567ffffffffffffffff8111610d9357610255903690600401611aa4565b92909573ba12222222228d8ba445958a75a0704d566bf2c83303610d355715610d0857359515610c7957359181604c11610ca657604885013560e01c4311610caa5781605011610ca657604c85013560e01c9160501015610c7957605085013560f81c9015610c79576102cf6102ca85611c59565b611d66565b946102d985611c59565b9088915b8360ff84161061058d57505050506103016102fa6102ca85611c59565b9485611c7a565b82811061052f578261031291611c7a565b633b9aca00820291808304633b9aca00149015171561050257106104a45761033a9084611c87565b848061034584611c59565b6040518260208201917fa9059cbb00000000000000000000000000000000000000000000000000000000835273ba12222222228d8ba445958a75a0704d566bf2c86024820152866044820152604481526103a0606482611b79565b51925af16103ac611c94565b5015610446576103bc9083611c7a565b908180610414575b6103d19150600454611c87565b6004555a916040519384526020840152604083015260608201527f41b03896e147216703c4c4b2d1d24275bf6ea501d3eb48a9369bb73f1f980fe760804392a280f35b61042061043f92611c59565b73ffffffffffffffffffffffffffffffffffffffff6001541690611cf1565b5f816103c4565b60646040517f08c379a000000000000000000000000000000000000000000000000000000000815260206004820152600f60248201527f5472616e73666572206661696c656400000000000000000000000000000000006044820152fd5b60646040517f08c379a000000000000000000000000000000000000000000000000000000000815260206004820152601a60248201527f4f5243413a2070726f6669742062656c6f77206d696e696d756d0000000000006044820152fd5b6024877f4e487b710000000000000000000000000000000000000000000000000000000081526011600452fd5b60646040517f08c379a000000000000000000000000000000000000000000000000000000000815260206004820152601760248201527f4f5243413a2063616e6e6f74207265706179206c6f616e0000000000000000006044820152fd5b60ff6105a061059b85611b26565b611b68565b168201803560601c91908b9060180135811a60801615610a7e57506040517f70a0823100000000000000000000000000000000000000000000000000000000815230600482015260208160248173ffffffffffffffffffffffffffffffffffffffff86165afa908115610a73578c91610a42575b508b8060405160208101907f0902f1ac00000000000000000000000000000000000000000000000000000000825260048152610651602482611b79565b5190865afa61065e611c94565b9080610a36575b156109d8576060818051810103126109d45761068360208201611dfe565b606061069160408401611dfe565b92015163ffffffff8116036109d0576dffffffffffffffffffffffffffff80911691168015908115806109c7575b15610969576103e58402918483046103e5148515171561093b576103e58486020293838504148315171561093b576103e882029182046103e814171561090e579061070991611c87565b9081156108e15784928e95869593610722930493611cf1565b8260405160208101927f022c0d9f0000000000000000000000000000000000000000000000000000000084526024820152816044820152306064820152608060848201528160a482015260a4815261077b60c482611b79565b51925af1610787611c94565b5015610883576040517f70a082310000000000000000000000000000000000000000000000000000000081523060048201526020816024818d5afa908115610878578a91610843575b50156107e5575b60ff60018a930116916102dd565b60646040517f08c379a000000000000000000000000000000000000000000000000000000000815260206004820152600b60248201527f5a65726f206f75747075740000000000000000000000000000000000000000006044820152fd5b90506020813d8211610870575b8161085d60209383611b79565b8101031261086c57515f6107d0565b5f80fd5b3d9150610850565b6040513d8c823e3d90fd5b60646040517f08c379a000000000000000000000000000000000000000000000000000000000815260206004820152600b60248201527f53776170206661696c65640000000000000000000000000000000000000000006044820152fd5b60248e7f4e487b710000000000000000000000000000000000000000000000000000000081526012600452fd5b60248f7f4e487b710000000000000000000000000000000000000000000000000000000081526011600452fd5b5060248f7f4e487b710000000000000000000000000000000000000000000000000000000081526011600452fd5b60646040517f08c379a000000000000000000000000000000000000000000000000000000000815260206004820152600c60248201527f4e6f206c697175696469747900000000000000000000000000000000000000006044820152fd5b508215156106bf565b8d80fd5b8c80fd5b60646040517f08c379a000000000000000000000000000000000000000000000000000000000815260206004820152601260248201527f6765745265736572766573206661696c656400000000000000000000000000006044820152fd5b50606081511015610665565b90506020813d8211610a6b575b81610a5c60209383611b79565b8101031261086c57515f610614565b3d9150610a4f565b6040513d8e823e3d90fd5b9073ffffffffffffffffffffffffffffffffffffffff16916040517f70a08231000000000000000000000000000000000000000000000000000000008152306004820152602081602481875afa908115610c6e578391610c38575b50828094610bc960e46040516020810193845284604082015260408152610b01606082611b79565b7fffffffffffffffffffffffffffffffffffffffffffffffffffffffffffffffe0601f60405195869360208501997f128acb08000000000000000000000000000000000000000000000000000000008b52306024870152896044870152606486015273fffd8963efd1fc6a506488495d951d5263988d25608486015260a060a48601525180918160c48701528686015e878582860101520116810103017fffffffffffffffffffffffffffffffffffffffffffffffffffffffffffffffe08101835282611b79565b51925af1610bd5611c94565b506107d75760646040517f08c379a000000000000000000000000000000000000000000000000000000000815260206004820152600e60248201527f56332073776170206661696c65640000000000000000000000000000000000006044820152fd5b9250506020823d8211610c66575b81610c5360209383611b79565b8101031261086c5790518b919082610ad9565b3d9150610c46565b6040513d85823e3d90fd5b6024877f4e487b710000000000000000000000000000000000000000000000000000000081526032600452fd5b8680fd5b60646040517f08c379a000000000000000000000000000000000000000000000000000000000815260206004820152601760248201527f4f5243413a20646561646c696e652065786365656465640000000000000000006044820152fd5b6024887f4e487b710000000000000000000000000000000000000000000000000000000081526032600452fd5b60646040517f08c379a000000000000000000000000000000000000000000000000000000000815260206004820152600e60248201527f496e76616c69642063616c6c65720000000000000000000000000000000000006044820152fd5b8780fd5b8580fd5b8380fd5b5080fd5b503461019c57807ffffffffffffffffffffffffffffffffffffffffffffffffffffffffffffffffc36011261019c576020600554604051908152f35b503461019c57807ffffffffffffffffffffffffffffffffffffffffffffffffffffffffffffffffc36011261019c5760606003546004546005549060405192835260208301526040820152f35b503461019c57807ffffffffffffffffffffffffffffffffffffffffffffffffffffffffffffffffc36011261019c57602060405173ba12222222228d8ba445958a75a0704d566bf2c88152f35b503461019c57807ffffffffffffffffffffffffffffffffffffffffffffffffffffffffffffffffc36011261019c5760206040517342000000000000000000000000000000000000068152f35b503461019c57807ffffffffffffffffffffffffffffffffffffffffffffffffffffffffffffffffc36011261019c5773ffffffffffffffffffffffffffffffffffffffff6020915416604051908152f35b503461019c5760407ffffffffffffffffffffffffffffffffffffffffffffffffffffffffffffffffc36011261019c57610f7e610f52611ad2565b73ffffffffffffffffffffffffffffffffffffffff835416610f75813314611bf4565b60243591611cf1565b80f35b503461019c57807ffffffffffffffffffffffffffffffffffffffffffffffffffffffffffffffffc36011261019c57610fd273ffffffffffffffffffffffffffffffffffffffff8254163314611bf4565b7fffffffffffffffffffffff00ffffffffffffffffffffffffffffffffffffffff600154166001557fa6a833a748bb4239edb6bf29967ce0844bdde1213bfe417b50e53be0f763413d6020604051838152a180f35b503461019c57807ffffffffffffffffffffffffffffffffffffffffffffffffffffffffffffffffc36011261019c576020600454604051908152f35b503461019c5760207ffffffffffffffffffffffffffffffffffffffffffffffffffffffffffffffffc36011261019c577fe4f65e2ca2c83e5b4ae9247816d99b62550f320cc4196d714109b21c3dc09656602073ffffffffffffffffffffffffffffffffffffffff6110d3611ad2565b6110e1828654163314611bf4565b1680845260028252604084207fffffffffffffffffffffffffffffffffffffffffffffffffffffffffffffff008154169055604051908152a180f35b503461019c57807ffffffffffffffffffffffffffffffffffffffffffffffffffffffffffffffffc36011261019c576020600354604051908152f35b503461019c57807ffffffffffffffffffffffffffffffffffffffffffffffffffffffffffffffffc36011261019c57602073ffffffffffffffffffffffffffffffffffffffff60015416604051908152f35b503461019c5760207ffffffffffffffffffffffffffffffffffffffffffffffffffffffffffffffffc36011261019c5760ff604060209273ffffffffffffffffffffffffffffffffffffffff6111ff611ad2565b168152600284522054166040519015158152f35b503461019c57807ffffffffffffffffffffffffffffffffffffffffffffffffffffffffffffffffc36011261019c5761126473ffffffffffffffffffffffffffffffffffffffff8254163314611bf4565b740100000000000000000000000000000000000000007fffffffffffffffffffffff00ffffffffffffffffffffffffffffffffffffffff60015416176001557fa6a833a748bb4239edb6bf29967ce0844bdde1213bfe417b50e53be0f763413d602060405160018152a180f35b503461019c5760207ffffffffffffffffffffffffffffffffffffffffffffffffffffffffffffffffc36011261019c577f6acfd92212f0ec670af78f8ba2273e4a85ac17023475650c25be0440602bff2d602073ffffffffffffffffffffffffffffffffffffffff611341611ad2565b61134f828654163314611bf4565b16808452600282526040842060017fffffffffffffffffffffffffffffffffffffffffffffffffffffffffffffff00825416179055604051908152a180f35b503461019c57807ffffffffffffffffffffffffffffffffffffffffffffffffffffffffffffffffc36011261019c578080808073ffffffffffffffffffffffffffffffffffffffff8154166113e4813314611bf4565b4790828215611403575bf1156113f75780f35b604051903d90823e3d90fd5b506108fc6113ee565b503461019c57807ffffffffffffffffffffffffffffffffffffffffffffffffffffffffffffffffc36011261019c57602060ff60015460a01c166040519015158152f35b90503461086c5760207ffffffffffffffffffffffffffffffffffffffffffffffffffffffffffffffffc36011261086c5760043567ffffffffffffffff811161086c576114a1903690600401611aa4565b909173ffffffffffffffffffffffffffffffffffffffff5f541633148015611a8e575b15611a32575060ff60015460a01c166119d45760518110611976578060281161086c578060481161086c57602882013580156119185781604c1161086c57604883013560e01c43116118ba578160501161086c57816050101561188d57605083013560f81c600281101580611882575b156118245761154761059b60ff92611b26565b1682106117c65760409182519361155e8486611b79565b60018552602085017fffffffffffffffffffffffffffffffffffffffffffffffffffffffffffffffe085019384368337601483013560601c61159f88611be7565b528551906115ad8783611b79565b6001825260208201953687376115c282611be7565b5273ba12222222228d8ba445958a75a0704d566bf2c83b1561086c5785517f5c38449e000000000000000000000000000000000000000000000000000000008152306004820152608060248201529651608488018190529394879490939260a4860192915f5b818110611797575050506020907ffffffffffffffffffffffffffffffffffffffffffffffffffffffffffffffffc86840301604487015251918281520192905f5b81811061177e57505050817fffffffffffffffffffffffffffffffffffffffffffffffffffffffffffffffe0601f865f9787957ffffffffffffffffffffffffffffffffffffffffffffffffffffffffffffffffc876020990301606488015281865287860137878682860101520116010301818373ba12222222228d8ba445958a75a0704d566bf2c85af19081156117755750611762575b506003547fffffffffffffffffffffffffffffffffffffffffffffffffffffffffffffffff81146117355760010160035580f35b6024827f4e487b710000000000000000000000000000000000000000000000000000000081526011600452fd5b61176e91505f90611b79565b5f5f611701565b513d5f823e3d90fd5b8251855288955060209485019490920191600101611669565b825173ffffffffffffffffffffffffffffffffffffffff1685528a975060209485019490920191600101611628565b60646040517f08c379a000000000000000000000000000000000000000000000000000000000815260206004820152601560248201527f526f757465206c656e677468206d69736d6174636800000000000000000000006044820152fd5b60646040517f08c379a000000000000000000000000000000000000000000000000000000000815260206004820152601160248201527f496e76616c696420686f7020636f756e740000000000000000000000000000006044820152fd5b506004811115611534565b7f4e487b71000000000000000000000000000000000000000000000000000000005f52603260045260245ffd5b60646040517f08c379a000000000000000000000000000000000000000000000000000000000815260206004820152601760248201527f426c6f636b20646561646c696e652065786365656465640000000000000000006044820152fd5b60646040517f08c379a000000000000000000000000000000000000000000000000000000000815260206004820152601360248201527f496e76616c6964206c6f616e20616d6f756e74000000000000000000000000006044820152fd5b60646040517f08c379a000000000000000000000000000000000000000000000000000000000815260206004820152600f60248201527f526f75746520746f6f2073686f727400000000000000000000000000000000006044820152fd5b60646040517f08c379a000000000000000000000000000000000000000000000000000000000815260206004820152600f60248201527f436f6e7472616374206b696c6c656400000000000000000000000000000000006044820152fd5b807f08c379a0000000000000000000000000000000000000000000000000000000006064925260206004820152600e60248201527f4e6f7420617574686f72697a65640000000000000000000000000000000000006044820152fd5b50335f52600260205260ff60405f2054166114c4565b9181601f8401121561086c5782359167ffffffffffffffff831161086c576020838186019501011161086c57565b6004359073ffffffffffffffffffffffffffffffffffffffff8216820361086c57565b9181601f8401121561086c5782359167ffffffffffffffff831161086c576020808501948460051b01011161086c57565b60ff60199116029060ff8216918203611b3b57565b7f4e487b71000000000000000000000000000000000000000000000000000000005f52601160045260245ffd5b60ff166051019060ff8211611b3b57565b90601f7fffffffffffffffffffffffffffffffffffffffffffffffffffffffffffffffe0910116810190811067ffffffffffffffff821117611bba57604052565b7f4e487b71000000000000000000000000000000000000000000000000000000005f52604160045260245ffd5b80511561188d5760200190565b15611bfb57565b60646040517f08c379a000000000000000000000000000000000000000000000000000000000815260206004820152600960248201527f4e6f74206f776e657200000000000000000000000000000000000000000000006044820152fd5b3573ffffffffffffffffffffffffffffffffffffffff8116810361086c5790565b91908203918211611b3b57565b91908201809211611b3b57565b3d15611cec573d9067ffffffffffffffff8211611bba5760405191611ce160207fffffffffffffffffffffffffffffffffffffffffffffffffffffffffffffffe0601f8401160184611b79565b82523d5f602084013e565b606090565b5f92918380936040519073ffffffffffffffffffffffffffffffffffffffff60208301947fa9059cbb000000000000000000000000000000000000000000000000000000008652166024830152604482015260448152611d52606482611b79565b51925af1611d5e611c94565b501561044657565b602073ffffffffffffffffffffffffffffffffffffffff916024604051809481937f70a08231000000000000000000000000000000000000000000000000000000008352306004840152165afa908115611df3575f91611dc4575090565b90506020813d602011611deb575b81611ddf60209383611b79565b8101031261086c575190565b3d9150611dd2565b6040513d5f823e3d90fd5b51906dffffffffffffffffffffffffffff8216820361086c5756fea2646970667358221220c2b5cd3f6f4612b8844044a358ed6d4864e043e08663901bc0c07f1be2fc0e5064736f6c63430008230033","linkReferences":{}},"methodIdentifiers":{"BALANCER_VAULT()":"bc163846","WETH()":"ad5c4648","authorizeCaller(address)":"2c388d5d","authorizedCallers(address)":"536fff6c","deauthorizeCaller(address)":"6873c21d","execute(bytes)":"09c5eabe","failedExecutions()":"ddc41435","getStats()":"c59d4847","kill()":"41c0e1b5","killed()":"1f3a0e41","owner()":"8da5cb5b","receiveFlashLoan(address[],uint256[],uint256[],bytes)":"f04f2707","rescueERC20(address,uint256)":"8cd4426d","rescueETH()":"20800a00","setTreasury(address)":"f0f44260","totalExecutions()":"642f7d5e","totalProfit()":"86001519","treasury()":"61d027b3","unkill()":"8abe28a3"},"id":0}